:100000000C943D010C94E3090C94BC090C949509E3
:100010000C946E090C9465010C9465010C944709CD
:100020000C9465010C9465010C9451040C94C30468
:100030000C9465010C9465010C9465010C946501A8
:100040000C9465010C9465010C9465010C94650198
:100050000C94380B0C9465010C9465010C94FD080C
:100060000C9465010C9465010C9465010C94650178
:100070000C9465010C9465010C9465010C94650168
:100080000C9465010C9465010C9465010C94650158
:100090000C940A0A0C9465010C9465010C9465019A
:1000A0000C9465010C9465010C9465012B072E07D7
:1000B0001D07210725074F074F074F073207360750
:1000C0003A07400744074F074A07C607CB07D00740
:1000D000DA07E4072E082E082E08EE07F8070208B4
:1000E0000C0819082E08210807634236B79BD8A7C9
:1000F0001A39685618AEBAAB558C1D3CB7CC57634D
:10010000BD6DEDFD753EF6177231BF000000803FFA
:1001100008000000BE922449123EABAAAA2ABECD16
:10012000CCCC4C3E00000080BEABAAAAAA3E000088
:100130000000BF000000803F000000000008417880
:10014000D3BB4387D1133D190E3CC3BD4282AD2BB7
:100150003E68EC8276BED98FE1A93E4C80EFFFBEAF
:1001600001C4FF7F3F0000000000070605040100F6
:10017000080A0B0C0D0900000000240027002A00CB
:100180002D00300000000000250028002B002E006C
:1001900031000404040404030405020202020403FF
:1001A0000202020206060606060604040202020411
:1001B0000404080201104080401020408040800864
:1001C00002040180402010020110801020404020D5
:1001D0000000000200090F0000030401000C0000F1
:1001E0000000000000000000000000000000000807
:1001F0000B000202020100090400000102020000DB
:10020000052400100105240101010424020605242F
:100210000600010705810310004009040100020ADD
:1002200000000007050202400000070583024000AD
:10023000000403090441726475696E6F204C4C43DD
:100240000041726475696E6F204C656F6E617264F7
:100250006F001201000200000040412336800001BF
:100260000102030112010002EF0201404123368026
:100270000001010203016711CC0D11241FBECFEF55
:10028000DAE0DEBFCDBF12E0A0E0B1E0E8EFFDE2D2
:1002900002C005900D92A037B107D9F724E0A0E77E
:1002A000B2E001C01D92AE3CB207E1F711E0CCE331
:1002B000D1E004C02197FE010E942212CB33D10766
:1002C000C9F70E94FB0D0C94EF160C9400004091AE
:1002D000C5025091C6022091C3023091C402421758
:1002E0005307B4F49091E8009570E1F39091E80021
:1002F00092FD19C08093F1008091C5029091C602D1
:1003000001968F739927892B19F48EEF8093E8005B
:100310008091C5029091C60201969093C602809387
:10032000C50281E0089580E00895CF92DF92EF92B8
:10033000FF920F931F93CF93DF931F92CDB7DEB73A
:10034000182F062FE42E862F880F8E5F99830E9428
:10035000670183E00E946701F12EC12E9981D92E99
:100360008C2D8F19801798F4F601E7FE02C0849156
:1003700001C080810E946701182F80E00E94670100
:100380008123FFEFCF1ADF0A8111EACF01C081E09C
:100390000F90DF91CF911F910F91FF90EF90DF9021
:1003A000CF900895DF92EF92FF920F931F93CF9318
:1003B000DF93D82E8A017B01E40EF51EEB01CE15EA
:1003C000DF0571F0D7FE03C0FE01849101C0888172
:1003D0000E94670121968111F2CF8FEF9FEF01C03C
:1003E000C801DF91CF911F910F91FF90EF90DF90A7
:1003F0000895615030F02091F100FC0120830196B6
:10040000F8CF289884E68093DB030895CF92DF929B
:10041000EF92FF920F931F93CF93DF936C017A01BA
:100420008B01C0E0D0E0CE15DF0589F0D8016D91D9
:100430008D01D601ED91FC910190F081E02DC60176
:100440000995892B11F47E0102C02196ECCFC701DA
:10045000DF91CF911F910F91FF90EF90DF90CF90A0
:100460000895CF93DF931F92CDB7DEB76983DC0188
:10047000ED91FC910280F381E02D41E050E0BE015E
:100480006F5F7F4F09950F90DF91CF91089583E0C3
:100490008093E9008091F200882319F08AE3809329
:1004A000E8000895FC018485958597FD0BC09FB7F2
:1004B000F89482E08093E9008091F2009FBF90E081
:1004C000019608959FB7F89482E08093E9008091A7
:1004D000F2009FBF90E008953FB7F8948091BE026C
:1004E0009091BF02A091C002B091C10226B5A89B15
:1004F00005C02F3F19F00196A11DB11D3FBFBA2FB6
:10050000A92F982F8827820F911DA11DB11DBC0115
:10051000CD0142E0660F771F881F991F4A95D1F7DA
:100520000895089585ED8093BC008091BC0084FD02
:10053000FCCF10922504089540919402262F30E0BC
:10054000240F311D21323105DCF4209125042430A3
:10055000C9F4FC0180E090E0861758F430919402D1
:100560002191DC01AE58BD4FA30FB11D2C93019614
:10057000F3CF80919402680F6093940280E0089515
:1005800081E0089582E008950895E091DE0380916E
:10059000DD03E81730F4F0E0E152FC4F808190E099
:1005A00008958FEF9FEF08959091DE038091DD0312
:1005B000981750F4E92FF0E0E152FC4F208130E031
:1005C0009F5F9093DE0302C02FEF3FEFC9010895B4
:1005D0008091DD0390E02091DE03821B9109089554
:1005E000CF92DF92EF92FF920F931F93CF93DF93FF
:1005F0007C01262F972F8A0180912604882391F071
:10060000C62FD72F6E01C40ED51ECC15DD0571F097
:100610006991D701ED91FC910190F081E02DC70126
:100620000995F3CF642F822F0E949C02C801DF91AD
:10063000CF911F910F91FF90EF90DF90CF90089591
:10064000CF93DF931F92CDB7DEB769832091260445
:100650002223D1F020914804203240F021E030E004
:10066000FC013383228380E090E015C08091270451
:10067000E82FF0E0E85DFB4F998190838F5F8093D6
:1006800027048093480405C061E0CE0101960E94D2
:100690009C0281E090E00F90DF91CF910895CF937D
:1006A000DF93EC019B018A859B85892B09F470C03F
:1006B00080E09C85891748F4F901E80FF11DE80FE7
:1006C000F11D118210828F5FF4CFB0E08A89B817D4
:1006D00008F046C0A0E08C85A81708F03FC08A2F1C
:1006E00090E0EA85FB85E80FF91FE081E23108F030
:1006F000E251F0E0E659FE4FE491F0917B00E3FB1C
:10070000442740F950E0BA0155E0660F771F5A952B
:10071000E1F77F2F7F7D672B60937B00E770E064BC
:10072000E0937C0060917A00606460937A0060914D
:100730007A0066FDFCCF60917800E091790070E06E
:100740007E2B880F991FF901E80FF91F8081918195
:10075000860F971F91838083AF5FBDCFBF5FB6CFFA
:1007600040E08C854817A0F4F901E40FF11DE40F77
:10077000F11D6A8970E0DB01B595A79580819181B3
:100780008A0F9B1F0E94EC11718360834F5FE9CF3A
:10079000DF91CF9108950F931F93CF93DF931F9213
:1007A000CDB7DEB782E0898342E450E06FEE71E0BE
:1007B00080E80E94D2010E94B80DDC0112960D91D2
:1007C0001C9113970115110569F0D801ED91FC9169
:1007D0000280F381E02DBE016F5F7F4FC801099554
:1007E00097FF07C089810F90DF91CF911F910F91E3
:1007F0000895F80100851185E5CFCF93DF931F920F
:10080000CDB7DEB7FC018485958597FD05C02FEF38
:100810003FEF358724870BC0CE0101960E944D0D16
:10082000019719F4898190E002C08FEF9FEF0F903C
:10083000DF91CF9108950F931F93CF93DF931F9272
:10084000CDB7DEB78C01FC018485958597FF0EC07E
:10085000CE0101960E944D0D019719F4298130E0D7
:1008600002C02FEF3FEFF80135872487F801848518
:1008700095850F90DF91CF911F910F9108958091F1
:1008800070028F5F8093700280E591E00C943F0DC1
:10089000809171028F5F8093710282E791E00C94E6
:1008A0003F0D1F920F920FB60F9211248F939F93BB
:1008B0008091E1009091E100937F9093E10083FFAC
:1008C0000FC01092E90091E09093EB001092EC00C1
:1008D00092E39093ED001092DC0398E09093F00087
:1008E00082FF20C093E09093E9009091F200992359
:1008F00019F09AE39093E8009091C702992339F098
:100900009091C70291509093C702992389F19091D9
:10091000DB03992339F09091DB0391509093DB0333
:10092000992341F184FF10C08091E2008E7E8160A6
:100930008093E2008091E1008F7E8093E1008091BE
:10094000C9028E7E806111C080FF16C08091E200D6
:100950008E7E80618093E2008091E1008E7E8093A4
:10096000E1008091C9028E7E81608093C90204C03B
:100970005D9ACDCF289AD6CF9F918F910F900FBEC1
:100980000F901F9018951F920F920FB60F9211247F
:10099000CF92DF92EF92FF920F931F932F933F938B
:1009A0004F935F936F937F938F939F93AF93BF9377
:1009B000EF93FF93CF93DF93CDB7DEB76C97DEBF96
:1009C000CDBF1092E9008091E80083FFFAC168E092
:1009D000CE0145960E94F90182EF8093E8008D894F
:1009E00087FF05C09091E80090FFFCCF03C09EEF09
:1009F0009093E800982F907609F0C6C09E892F89C1
:100A0000188D91110CC0803829F48091CA0280930E
:100A1000F10002C01092F1001092F10047C1422F84
:100A200050E0512B913051F4811140C141305105BA
:100A300009F03CC18091CA028D7F0BC0933061F4F4
:100A4000811134C14130510509F030C18091CA0291
:100A500082608093CA022AC1953041F48091E800F7
:100A600080FFFCCF20682093E30020C1963009F07E
:100A70005FC0EB8CFC8C1092E9001092C6021092C1
:100A8000C502123091F51092C4021092C3020E9466
:100A9000CB0399E0BE016F5F7F4FDB01E92F1D9211
:100AA000EA95E9F799831A8391E09E8390EA988703
:100AB0009AEF99872091C5023091C602275F3F4F78
:100AC0003C832B838D831092E9001092C602109212
:100AD000C502F092C402E092C30249E050E080E017
:100AE0000E94D2010E94CB03E1C0F092C402E092C6
:100AF000C3020E94B80DDC011296ED90FC90139792
:100B0000E114F10409F4C0C0D701ED91FC91048017
:100B1000F581E02DBE016B5E7F4FC70109950097FF
:100B200019F00CF0C3C0C6C0F701E084F184E8CF2F
:100B3000973009F4BFC0983021F481E08093F10030
:100B4000B5C0993009F0B2C0837009F0B3C0EEE1CE
:100B5000F1E081E021E036E39081992361F0809318
:100B6000E9002093EB0091919093EC003093ED001D
:100B70008F5F873089F78EE78093EA001092EA0052
:100B80008F898093DC0392C08B8D9C8D1092E9003D
:100B90001092C6021092C5029093C4028093C302C1
:100BA000898D811156C08E899D89913A59F481327F
:100BB00009F080C047E050E064E071E080E00E940E
:100BC000D20174C0913209F075C0833289F4888DE6
:100BD00090E0982F88272F89822BA0E0B0E08093A7
:100BE000000190930101A0930201B09303015EC044
:100BF000803269F48091E80082FFFCCF67E084E0F6
:100C000091E00E94F9018BEF8093E80006C08232E8
:100C100009F04CC08F8980930B018091C802882312
:100C200019F0EEEFFAE002C0E0E0F8E08091040194
:100C300090910501A0910601B0910701803B94407D
:100C4000A105B10509F088C080910B0180FFA0C00B
:100C500083C00E94B80DDC0112960D911C91139770
:100C60000115110539F1D801ED91FC910190F08148
:100C7000E02DBE016B5E7F4FC8010995811116C042
:100C8000F80100851185ECCF1130C1F0133091F4DB
:100C90008F89882309F455C08230E9F440E860E187
:100CA00081E492E00E949501882321F08EEF8093E9
:100CB000E80087C081E28093EB0083C08B8D9C8D20
:100CC000089711F41093C2028091C202811136C0BC
:100CD00062E572E038C0813029F440E86BE085E3DA
:100CE00092E0E0CF833031F70E94B80DDC0112961C
:100CF000ED90FC9013978E010F5F1F4F6801E11478
:100D0000F10479F0D701ED91FC910680F781E02D97
:100D1000B801C7010995080F111DF701E084F1849E
:100D2000EECFD8011C92F60101900020E9F731972F
:100D3000BF016C197D0940E0C601B4CF64E672E0E2
:100D400002C061E372E06115710509F4B3CFFB01E4
:100D5000449150E080E833CF0FB6F894A895809185
:100D60006000886180936000109260000FBEA895BB
:100D7000EE3F2AE0F20739F08091FE0A9091FF0AD7
:100D80009183808393CF1092FF0A1092FE0A8ECF38
:100D9000EE3F8AE0F80731F0808191819093FF0A5D
:100DA0008093FE0A87E797E7918380839BE088E141
:100DB0000FB6F894A895809360000FBE90936000E2
:100DC00075CF6C960FB6F894DEBF0FBECDBFDF9126
:100DD000CF91FF91EF91BF91AF919F918F917F91B3
:100DE0006F915F914F913F912F911F910F91FF90C4
:100DF000EF90DF90CF900F900FBE0F901F9018953F
:100E0000362F90E0FC01E053FE4F4491FC01EF547B
:100E1000FE4F2491FC01EE56FE4F8491882309F485
:100E200051C04423E1F150E0FA013197EF30F10570
:100E3000B0F5EA5AFF4F0C942212909180009F77F0
:100E400007C0909180009F7D03C090918000977FA4
:100E50009093800024C094B59F7702C094B59F7D85
:100E600094BD1DC0909190009F7707C09091900015
:100E70009F7D03C090919000977F909390000FC04A
:100E80009091C0009F7703C09091C0009F7D909388
:100E9000C00005C09091C200977F9093C200E82FD8
:100EA000F0E0EE0FFF1FEC57FE4FA591B4918FB706
:100EB000F894EC91311103C020952E2301C02E2B04
:100EC0002C938FBF0895CF93DF9390E0FC01EF54F4
:100ED000FE4F2491FC01EE56FE4F8491882361F170
:100EE00090E0880F991FFC01EA58FE4FC591D491FC
:100EF000FC01EC57FE4FA591B491611109C09FB759
:100F0000F8948881209582238883EC912E230BC04E
:100F1000623061F49FB7F8943881822F80958323E3
:100F20008883EC912E2B2C939FBF06C08FB7F8942B
:100F3000E8812E2B28838FBFDF91CF9108951F93D7
:100F4000CF93DF93182FEB0161E00E946307209796
:100F500011F460E004C0CF3FD10539F461E0812F86
:100F6000DF91CF911F910C940007E12FF0E0E05347
:100F7000FE4FE4914E2F50E0FA013197EF30F1052A
:100F800008F06CC0EB59FF4F0C94221284B58068B6
:100F900084BDC7BD68C084B5806284BDC8BD63C060
:100FA00080918000806880938000D0938900C093F6
:100FB000880059C080918000806280938000D09327
:100FC0008B00C0938A004FC080918000886080931E
:100FD0008000D0938D00C0938C0045C0809190001C
:100FE000806880939000D0939900C09398003BC094
:100FF00080919000806280939000D0939B00C0937A
:101000009A0031C080919000886080939000D093C6
:101010009D00C0939C0027C08091C0008068809391
:10102000C0008091C0008F7B8093C000C093CF0030
:101030001AC08091C00080628093C000C093D0002D
:1010400012C08091C20088608093C2008091C2006B
:101050008B7F8093C200C093D20005C0C038D105F9
:101060000CF07CCF76CFDF91CF911F9108958F92B6
:101070009F92AF92BF92CF92DF92EF92FF926B015D
:101080007C010E946C024B015C01C114D104E1049B
:10109000F104F1F00E946C02DC01CB01881999097E
:1010A000AA09BB09883E9340A105B10570F321E070
:1010B000C21AD108E108F10888EE880E83E0981E74
:1010C000A11CB11CC114D104E104F10419F7DDCF56
:1010D000FF90EF90DF90CF90BF90AF909F908F9058
:1010E00008958F929F92AF92BF92CF92DF92EF922C
:1010F000FF920F931F93CF93DF935C016B018A01E3
:1011000080910B01882309F45EC08091DC03882361
:1011100009F459C08091C90280FF05C08091E000A8
:1011200082608093E000E8018AEFF82E93E0E92ED8
:101130002FE3822E3AE3932E209709F43DC08FB718
:10114000F894E092E9009091E80095FF06C0909134
:10115000F200282D291B922F01C090E08FBF911122
:101160000AC0FA94FF2079F161E070E080E090E03D
:101170000E943708E1CF292F30E0C217D3070CF4C3
:101180009C2F8FB7F894E092E9002091E80025FFAA
:1011900011C0292F30E0C21BD30BF601915020F073
:1011A00041914093F100FACFC20ED31E9091E80016
:1011B00095FF13C08FBFC0CF5D9884E68093C702B0
:1011C0001016110644F081E090E0F50193838283CC
:1011D00080E090E005C0C80103C09092E800EACF2B
:1011E000DF91CF911F910F91FF90EF90DF90CF9003
:1011F000BF90AF909F908F9008951F920F920FB65F
:101200000F9211242F933F938F939F93AF93BF938C
:101210008091BA029091BB02A091BC02B091BD0234
:101220003091B90223E0230F2D3720F40196A11D40
:10123000B11D05C026E8230F0296A11DB11D209304
:10124000B9028093BA029093BB02A093BC02B09300
:10125000BD028091BE029091BF02A091C002B091E8
:10126000C1020196A11DB11D8093BE029093BF02E1
:10127000A093C002B093C102BF91AF919F918F9193
:101280003F912F910F900FBE0F901F9018951F92B6
:101290000F920FB60F9211242F933F934F935F93AA
:1012A0006F937F938F939F93AF93BF93EF93FF932E
:1012B000E0911401F09115010995FF91EF91BF9113
:1012C000AF919F918F917F916F915F914F913F91DE
:1012D0002F910F900FBE0F901F9018951F920F9295
:1012E0000FB60F9211242F933F934F935F936F93F9
:1012F0007F938F939F93AF93BF93EF93FF93E0916F
:101300001201F09113010995FF91EF91BF91AF91F7
:101310009F918F917F916F915F914F913F912F910D
:101320000F900FBE0F901F9018951F920F920FB63F
:101330000F9211242F933F934F935F936F937F935B
:101340008F939F93AF93BF93EF93FF93E09110011F
:10135000F09111010995FF91EF91BF91AF919F918C
:101360008F917F916F915F914F913F912F910F904E
:101370000FBE0F901F9018951F920F920FB60F92ED
:1013800011242F933F934F935F936F937F938F938A
:101390009F93AF93BF93EF93FF93E0910E01F09172
:1013A0000F010995FF91EF91BF91AF919F918F919F
:1013B0007F916F915F914F913F912F910F900FBE51
:1013C0000F901F9018951F920F920FB60F92112435
:1013D0002F933F934F935F936F937F938F939F933D
:1013E000AF93BF93EF93FF93E0910C01F0910D0148
:1013F0000995FF91EF91BF91AF919F918F917F914F
:101400006F915F914F913F912F910F900FBE0F9071
:101410001F9018951F920F920FB60F9211242F93C1
:101420003F934F935F936F937F938F939F93AF936C
:10143000BF93EF93FF938091B900887F803609F4C2
:101440009CC068F5883209F45BC090F4803109F4DF
:1014500054C038F4882309F4F6C0883009F44DC02C
:10146000F6C0883109F44CC0803209F45DC0EFC089
:10147000803409F468C048F4803309F455C08833D7
:1014800009F0E5C080932304D8C0803509F44FC02B
:10149000883509F45DC0883409F0D9C0D6C08839D0
:1014A00009F4C7C0A8F4883709F467C038F488364F
:1014B00009F463C0803709F460C0C9C0883809F4F2
:1014C000B8C0803909F45FC0803809F0C0C05BC083
:1014D000803B09F486C038F4803A09F466C0883A43
:1014E00009F47FC0B4C0803C09F4A7C0883C09F46B
:1014F000A4C0883B09F48AC0AAC08091000410C02F
:101500009091220480912104981770F5E0912204B3
:1015100081E08E0F80932204F0E0EF5FFB4F80812B
:101520008093BB0085EC86C0809323048EC0E0913D
:10153000220481E08E0F809322048091BB00F0E0B2
:10154000EF5FFB4F808390912204809121046EC055
:10155000E091220481E08E0F809322048091BB00F1
:10156000F0E0EF5FFB4F80838091240481116DC018
:1015700081E08093FF0384EA61C083E080932504C7
:101580001092B802CFCF8091B802803208F051C0DB
:10159000E091B80281E08E0F8093B8028091BB0089
:1015A000F0E0E856FD4F8083BDCF85EC8093BC0012
:1015B000109225048091B802803230F4E091B80294
:1015C000F0E0E856FD4F10826091B80270E0E091C3
:1015D0009602F091970288E992E009951092B8027C
:1015E00036C084E0809325041092950210929402F4
:1015F000E0919202F09193020995809194028111F9
:1016000005C081E08093940210927202E0919502ED
:1016100081E08E0F80939502F0E0EE58FD4F8081BF
:101620008093BB009091950280919402981708F4E2
:1016300079CF85E88093BC000AC085EC8093BC001C
:101640001092250404C0109223040E949202FF917C
:10165000EF91BF91AF919F918F917F916F915F912A
:101660004F913F912F910F900FBE0F901F901895A3
:101670001F920F920FB60F9211242F933F934F9307
:101680005F936F937F938F939F93AF93BF93EF93EA
:10169000FF93E091CF02F091D0020995FF91EF9175
:1016A000BF91AF919F918F917F916F915F914F917A
:1016B0003F912F910F900FBE0F901F90189560E0F3
:1016C00085E00E94000760E086E00E94000710921B
:1016D000D2021092D10210927102109270020895FB
:1016E0008091D1029091D2020197029780F480916B
:1016F000D3029091D402409750F01092D4021092ED
:10170000D30283E991E00E943F0D0E945F0B80911C
:10171000D1029091D2020397029780F48091D30274
:101720009091D4020B9750F01092D4021092D302F1
:1017300083EA91E00E943F0D0E945F0B8091D302EB
:101740009091D40201969093D4028093D30208958D
:101750000E94EF15382F209148049091BD0421324A
:1017600008F049C0809125048111FCCF42E04093EC
:101770002504309324043FEF309323041092220475
:1017800020932104A8E2B4E041E054E0FA013E2FA6
:10179000341B321718F43D913193F9CF10920004A5
:1017A00020910004990F922B909300049091FF03D5
:1017B000913061F41092FF03909100049093BB006C
:1017C0009091BC0093FDF8CF95EC01C095EE9093FD
:1017D000BC00909125049230E1F3909123049F3F47
:1017E00079F080912304803241F08091230480338A
:1017F00031F084E005C081E003C082E001C083E0F5
:101800001092270410924804109226040895909193
:1018100025049111FCCF813208F080E291E0909391
:101820002504909324042FEF209323041092220484
:10183000280F209321049093000490910004926556
:10184000909300049091FF03913061F41092FF0394
:10185000909100049093BB009091BC0093FDF8CF51
:1018600095EC01C095EE9093BC00909125049130C9
:10187000E1F390912204981710F480912204A1E0E2
:10188000B4E02FED33E0F9019E2F921B981718F466
:101890009D919193F9CF1092DE038093DD0308951B
:1018A000CF93DF931F92CDB7DEB791E090932604DC
:1018B00099E29093BD041092270410924804682F77
:1018C00060688EEB94E049830E9420034981642F75
:1018D0008EEB94E00E94200381E00F90DF91CF9186
:1018E0000C94AA0B91E09093260499E29093BD0486
:1018F0001092270410924804682F60688EEB94E0E1
:101900000E94200381E00E94AA0B81E090E00E94E7
:10191000070C8EEB94E00E94D4020895CF93DF93DE
:101920001092DE031092DD031092270410924804F7
:101930001092250481E0809324041092FF0361E05B
:1019400082E00E94000761E083E00E94000780912E
:10195000B9008E7F8093B9008091B9008D7F80930C
:10196000B90088E48093B80085E48093BC0082E1EC
:101970000E94720C843411F08031D1F581E08093A3
:101980009904C0919C04D0919D04AE0160E070E088
:101990000E94500CD0939D04C0939C04C0919A0463
:1019A000D0919B0480919904811102C00E948E0CF9
:1019B000AE0160E070E08FE00E94500CD0939B0479
:1019C000C0939A0441E050E060E070E080E00E9443
:1019D000500C63E070E080E090E00E94370843E044
:1019E00050E060E070E080E00E94500C81E001C0B7
:1019F00080E0DF91CF910895CF93DF9391E09093B2
:101A0000260499E29093BD04109227041092480492
:101A1000682F60688EEB94E00E94200381E00E94B2
:101A2000AA0B82E090E00E94070C8EEB94E00E94EB
:101A3000D402EC018EEB94E00E94D40220E030E06E
:101A4000382FC9018C2B9D2BDF91CF910895BC01BC
:101A5000009791F0FC0101900020E9F73197AF0168
:101A6000481B590BE0914904F0914A040280F3812C
:101A7000E02D89E494E0099480E090E00895CF930C
:101A8000DF930E94270DEC0180E292E00E94270D77
:101A90008C0F9D1FDF91CF910895FC018091DC0395
:101AA000811103C08FEF9FEF08959FB7F89482E0F4
:101AB0008093E9002091F20030E01216130614F42E
:101AC00021E030E02115310559F0289884E6809313
:101AD000DB038091F10080838091F200882319F06C
:101AE0009FBFC90108958BE68093E800F9CF8F92DC
:101AF0009F92AF92BF920F931F93CF93DF93CDB777
:101B0000DEB7A1970FB6F894DEBF0FBECDBF19A206
:101B1000423008F44AE08E010F5D1F4F842E912C55
:101B2000A12CB12CA50194010E940012E62FB9014D
:101B3000CA0101501109EA3014F4E05D01C0E95C0A
:101B4000D801EC93232B242B252B61F7C8010E948D
:101B5000270DA1960FB6F894DEBF0FBECDBFDF9163
:101B6000CF911F910F91BF90AF909F908F9008954C
:101B70008091B50481110DC082E08093B10484E0AE
:101B80008093B2041092B4041092B30481E0809365
:101B9000B50481EB94E008958EE491E090939F0466
:101BA00080939E048091A8049091A904009711F05D
:101BB0000E9457158091A2049091A304009711F000
:101BC0000E9457158091A6049091A704009711F0E8
:101BD0000E9457158091A0049091A104009711F0E4
:101BE0000E9457158091A4049091A504009711F0CC
:101BF0000C9457150895CF93DF9300D000D0CDB744
:101C0000DEB7789484B5826084BD84B5816084BD7C
:101C100085B5826085BD85B5816085BD80916E008A
:101C2000816080936E0010928100809181008260BB
:101C300080938100809181008160809381008091F8
:101C40008000816080938000809191008260809309
:101C5000910080919100816080939100809190002B
:101C60008160809390008091C10084608093C10066
:101C70008091C10082608093C1008091C100816029
:101C80008093C1008091C30081608093C3008091E4
:101C9000C00082608093C0008091C2008160809308
:101CA000C20080917A00846080937A0080917A00EB
:101CB000826080937A0080917A00816080937A00BC
:101CC00080917A00806880937A001092DC031092F1
:101CD000CA021092C9028091D70081608093D70018
:101CE00080EA8093D80089B5806189BD89B582601A
:101CF00089BD09B400FEFDCF61E070E080E090E0B6
:101D00000E9437088091D8008F7C80618093D80032
:101D10008091E000807F8093E0008091E1008E7EE2
:101D20008093E1008DE08093E200559A209AEEEFD7
:101D3000FFE7859194918B3F9C4D19F481E080934E
:101D4000C80214E061E0812F0E9463071F5F183012
:101D5000C9F78FEF9FEF909356048093550410912D
:101D60000B016AE070E080E090E00E9437081123E8
:101D7000B1F384EB91E00E943F0D81E090E00E947E
:101D8000C2147C0114E061E0812F0E9463071F5F91
:101D90001830C9F762E082E00E94630762E083E0E6
:101DA0000E94630788E494E09093130180931201EA
:101DB00080916900806C80936900EB9A8FE394E0D6
:101DC000909311018093100180916900806380934A
:101DD0006900EA9A1092D2021092D1028FEF9FEF1F
:101DE0009093D6028093D50261E08DE00E94630754
:101DF0001092800080E18093810083E08093CD0287
:101E00008FB78093CE02F89484ED90E39093CC0248
:101E10008093CB0290938700809386008091CE02BE
:101E20008FBF90918100987F9093810020918100D5
:101E30009091CD02292B2093810020E73BE0309345
:101E4000D0022093CF0281E080936F0080918100C7
:101E5000982B9093810082EC91E00E943F0DF092CC
:101E6000D803E092D70386E090E00E94C2148C0170
:101E7000DC011196FC92EE9281E090E015969C9325
:101E80008E9314970E948E0C882309F444C083ED2E
:101E900091E00E943F0D61E083E00E94630761E0F2
:101EA00085E00E94630761E086E00E94630797ED8A
:101EB000E92E92E0F92EC12CD12CB6010D2C000C8C
:101EC000880B990B0E94F61520E030E04FE753E4B1
:101ED0000E94951220E030E040E250E40E943D1361
:101EE00020E030E04FE753E40E9431169B01AC0143
:101EF00060E070E08FE793E40E9428120E940E13C6
:101F0000F70161937F01FFEFCF1ADF0AC11421E0CF
:101F1000D20699F605C080EE91E00E943F0DFFCFFA
:101F20001093DA030093D90383E0282E312C04E0C8
:101F300010E080E00E94720C8F7E482F50E060E03D
:101F400070E080E00E94500C6CE370E080E090E074
:101F50000E94370880919904811102C00E948E0C62
:101F600084E10E94FC0C4C0186E10E94FC0C2C01D7
:101F700088E10E94FC0C6C018AE10E94FC0C9A83AF
:101F8000898380919C0490919D04853D910519F170
:101F900054F4009729F1803C910541F56AE970E01D
:101FA00080E090E021C0863F910581F08F3F910550
:101FB00041F08B3E9105D1F462E370E080E090E067
:101FC00013C063E070E080E090E00EC068E170E074
:101FD00080E090E009C065E670E080E090E004C039
:101FE0006CEB72E080E090E00E94370880E00E9495
:101FF000720C8061482F50E060E070E080E00E9449
:10200000500C8DE092E00E94270DA12CB12C4AE0EB
:10201000C501B4010E94770D81E192E00E94270D75
:10202000612C712C4AE0C301B2010E94770D86E158
:1020300092E00E94270DE12CF12C4AE0C701B60185
:102040000E94770D8BE192E00E94270DA981BA8151
:10205000CD01A0E0B0E089839A83AB83BC834AE0E2
:10206000BC01CD010E94770DC301B2010E94F4159D
:102070002B013C01C501B4010E94F4154B015C0128
:102080009B01AC01C301B2010E9495122B013C01DE
:10209000C701B6010E94F415A50194010E94951292
:1020A0006B017C0169817A818B819C810E94F4158E
:1020B000A50194010E9495124B015C018EE192E012
:1020C0000E94270D20E030E040E853E4C301B20154
:1020D0000E9431160E9407132B013C01072E000CB1
:1020E000880B990B40E10E94770D20E030E040E83A
:1020F00053E4C701B6010E9431160E9407136B0119
:102100007C01072E000C880B990B40E10E94770D93
:1021100020E030E040E853E4C501B4010E943116EC
:102120000E9407134B015C01072E000C880B990BD2
:1021300040E10E94770D80E292E00E94270DF201BB
:10214000E952FD4F608170E083E00E949F07F60135
:10215000E952FD4F608170E085E00E949F07F40125
:10216000E952FD4F608170E086E00E949F0789E49C
:1021700094E00E945202892B09F4A1C089E494E002
:102180000E94FD038F3F09F498C0833709F450C0C3
:102190002CF5813609F46DC0843609F090C064E6F0
:1021A00070E085E00E949F0761E084E00E940007E4
:1021B00064E670E086E00E949F0761E087E00E948D
:1021C000000780E592E00E943F0D1092D402109229
:1021D000D3021093D2020093D10271C0883709F460
:1021E0006CC08A3709F464C0873709F068C068E7B3
:1021F00070E085E00E949F0761E084E00E94000794
:1022000068E770E086E00E949F0760E087E00E9438
:10221000000783E292E00E943F0D1092D4021092D8
:10222000D302E1E0F0E0F093D202E093D10247C0A4
:1022300064E670E085E00E949F0760E084E00E9411
:10224000000764E670E086E00E949F0761E087E097
:102250000E94000782E392E00E943F0D1092D40298
:102260001092D30282E090E09093D2028093D10248
:1022700026C064E670E085E00E949F0760E084E08D
:102280000E94000764E670E086E00E949F0760E01D
:1022900087E00E94000783E492E00E943F0D1092C5
:1022A000D4021092D3023092D2022092D10207C0FF
:1022B0008EE592E00E943F0D02C00E945F0BA0E0FD
:1022C000B0E0AB2B09F435CE0E94000032CE109264
:1022D0004C0410924B0488EE93E0A0E0B0E08093B1
:1022E0004D0490934E04A0934F04B093500428E201
:1022F00031E030934A04209349042FEF3FEF3093AD
:102300005604209355041092C1041092C004809387
:10231000C2049093C304A093C404B093C50488E39B
:1023200091E09093BF048093BE0488E491E0909381
:102330009F0480939E041092A1041092A004109216
:10234000A3041092A2041092A5041092A404109267
:10235000A7041092A6041092AF041092AE0482E07B
:102360008093AA0482E090E00E94C2149093A90492
:102370008093A804892BC1F080E09091AA0489176A
:1023800080F4282F30E0F901EA5EFE4F9081409101
:10239000A8045091A904FA01E20FF31F90838F5F04
:1023A000ECCF82E08093AB0484EC8093B0048FEF99
:1023B00093E09093AD048093AC04109299048BEE5B
:1023C00090E090939D0480939C0481E090E0909332
:1023D0009B0480939A040895AA1BBB1B51E107C07C
:1023E000AA1FBB1FA617B70710F0A61BB70B881FA5
:1023F000991F5A95A9F780959095BC01CD01089534
:10240000A1E21A2EAA1BBB1BFD010DC0AA1FBB1FF8
:10241000EE1FFF1FA217B307E407F50720F0A21B6A
:10242000B30BE40BF50B661F771F881F991F1A94D7
:1024300069F760957095809590959B01AC01BD0101
:10244000CF010895EE0FFF1F0590F491E02D099440
:102450005058BB27AA270E9440120C94B5160E9420
:10246000A71638F00E94AE1620F039F49F3F19F4F9
:1024700026F40C94A4160EF4E095E7FB0C949E163B
:10248000E92F0E94C61658F3BA176207730784072C
:10249000950720F079F4A6F50C94E8160EF4E09573
:1024A0000B2EBA2FA02D0B01B90190010C01CA010E
:1024B000A0011124FF27591B99F0593F50F4503EB9
:1024C00068F11A16F040A22F232F342F4427585FAB
:1024D000F3CF469537952795A795F0405395C9F7C3
:1024E0007EF41F16BA0B620B730B840BBAF091507B
:1024F000A1F0FF0FBB1F661F771F881FC2F70EC01A
:10250000BA0F621F731F841F48F4879577956795EC
:10251000B795F7959E3F08F0B0CF9395880F08F0D8
:102520009927EE0F9795879508950E94A9120C940C
:10253000B5160E94AE1658F00E94A71640F029F476
:102540005F3F29F00C949E1651110C94E9160C94DF
:10255000A4160E94C61668F39923B1F3552391F38C
:10256000951B550BBB27AA2762177307840738F002
:102570009F5F5F4F220F331F441FAA1FA9F335D05F
:102580000E2E3AF0E0E832D091505040E695001C13
:10259000CAF72BD0FE2F29D0660F771F881FBB1FCD
:1025A000261737074807AB07B0E809F0BB0B802DAB
:1025B000BF01FF2793585F4F3AF09E3F510578F0D7
:1025C0000C949E160C94E9165F3FE4F3983ED4F306
:1025D000869577956795B795F7959F5FC9F7880FAB
:1025E000911D9695879597F90895E1E0660F771FFD
:1025F000881FBB1F621773078407BA0720F0621B8E
:10260000730B840BBA0BEE1F88F7E09508950E94B8
:102610000E136894B1110C94E91608950E94CE1619
:1026200088F09F5798F0B92F9927B751B0F0E1F093
:10263000660F771F881F991F1AF0BA95C9F714C043
:10264000B13091F00E94E816B1E008950C94E816BC
:10265000672F782F8827B85F39F0B93FCCF386957C
:1026600077956795B395D9F73EF4909580957095D9
:1026700061957F4F8F4F9F4F0895FA01EE0FFF1F17
:10268000309621053105A1F16115710561F480389D
:10269000BFE39B0749F168949038810561F0803869
:1026A000BFEF9B0741F099234AF5FF3FE105310554
:1026B000210519F1E8940894E795D901AA2329F492
:1026C000AB2FBE2FF85FD0F310C0FF5F70F4A6955C
:1026D000E0F7F73950F019F0FF3A38F49F779F93FD
:1026E0000DD00F9007FC9058089546F00C94A41656
:1026F00060E070E080E89FE308954FE79F775F9385
:102700004F933F932F930E9438142F913F914F91F5
:102710005F910E9431160C94951329F416F00C94D5
:102720009E160C94E8160C94A4160E94CE16A8F3DC
:102730009638A0F707F80F92E8942BE33AEA48EBB3
:102740005FE70E9447160F920F920F924DB75EB748
:102750000F920E948014E8EEF0E00E94C7134F91A0
:102760005F91EF91FF91E595EE1FFF1F49F0FE5736
:10277000E0684427EE0F441FFA95E1F74195550BA9
:102780000E94FA130F9007FE0C94EE130895DF9346
:10279000CF931F930F93FF92EF92DF927B018C01F7
:1027A000689406C0DA2EEF010E944416FE01E894F8
:1027B000A5912591359145915591A6F3EF010E9480
:1027C0004012FE019701A801DA9469F7DF90EF90BB
:1027D000FF900F911F91CF91DF9108959B01AC0164
:1027E00060E070E080E89FE30C9495120C949E16D4
:1027F0000C94B4140E94CE16D8F39923C9F3940F05
:10280000511DA3F39150504094F059F0882332F0B9
:10281000660F771F881F91505040C1F79E3F5105AA
:102820002CF7880F911D9695879597F908955F3F2E
:10283000ACF0983E9CF0BB27869577956795B79549
:1028400008F4B1609395C1F7BB0F58F711F460FF1E
:10285000E8CF6F5F7F4F8F4F9F4FE3CF0C94E91608
:1028600016F00C94B4140C94A41668940C949E1650
:102870000E94CE16A8F39923C1F3AEF3DF93CF9352
:102880001F930F93FF92C92FDD2788232AF02197EA
:10289000660F771F881FDAF720E030E040E85FEB33
:1028A0009FE3883920F0803E38F021968F770E9490
:1028B0002912E0E1F1E004C00E942912EDE3F1E009
:1028C0000E94C7138B01BE01EC01FB2E6F577109EB
:1028D0007595771F880B990B0E94F61528E132E752
:1028E00041E35FE30E944416AF2D9801AE01FF90D3
:1028F0000F911F91CF91DF910E9440120C94B51659
:10290000FA01DC01AA0FBB1F9B01AC01BF5728F4E1
:10291000222733274427507820C0B75190F4AB2F9B
:102920000024469537952795011CA395D2F30020E6
:1029300071F0220F331F441FB395DAF30ED00C94BD
:10294000281261307105A0E88A07B94630F49B016E
:10295000AC016627772788279078309621F020836E
:1029600031834283538308959F3F31F0915020F487
:10297000879577956795B795880F911D969587955B
:1029800097F90895CF93DF938230910510F482E098
:1029900090E0E091CC04F091CD0420E030E0C0E084
:1029A000D0E0309711F14081518148175907C0F0AC
:1029B0004817590761F482819381209719F09B830E
:1029C0008A832BC09093CD048093CC0426C021151C
:1029D000310519F04217530718F49A01BE01DF01BF
:1029E000EF010280F381E02DDCCF2115310509F1E3
:1029F000281B390B2430310590F412968D919C914F
:102A000013976115710521F0FB019383828304C044
:102A10009093CD048093CC04FD01329644C0FD0117
:102A2000E20FF31F81939193225031092D933C9330
:102A30003AC02091CA043091CB04232B41F4209159
:102A4000190130911A013093CB042093CA042091CC
:102A50001701309118012115310541F42DB73EB70A
:102A600040911B0150911C01241B350BE091CA04BD
:102A7000F091CB04E217F307A0F42E1B3F0B2817AD
:102A8000390778F0AC014E5F5F4F2417350748F0E7
:102A90004E0F5F1F5093CB044093CA0481939193D0
:102AA00002C0E0E0F0E0CF01DF91CF9108950F93F5
:102AB0001F93CF93DF93009709F48CC0FC013297EA
:102AC000138212820091CC041091CD0401151105DE
:102AD00081F420813181820F931F2091CA043091AB
:102AE000CB042817390779F5F093CB04E093CA0497
:102AF00071C0D80140E050E0AE17BF0750F4129605
:102B00002D913C911397AD012115310509F1D901A2
:102B1000F3CF9D01DA013383228360817181860FB7
:102B2000971F8217930769F4EC0128813981260FDA
:102B3000371F2E5F3F4F318320838A819B81938390
:102B40008283452B29F4F093CD04E093CC0442C05A
:102B50001396FC93EE931297ED01499159919E01C2
:102B6000240F351FE217F30771F480819181840FE0
:102B7000951F029611969C938E9382819381139652
:102B80009C938E931297E0E0F0E0D80112968D911D
:102B90009C911397009719F0F8018C01F6CF8D9155
:102BA0009C9198012E5F3F4F820F931F2091CA0482
:102BB0003091CB042817390769F4309729F4109223
:102BC000CD041092CC0402C0138212821093CB0465
:102BD0000093CA04DF91CF911F910F91089581E076
:102BE00090E0F8940C94EF16E89409C097FB3EF43B
:102BF00090958095709561957F4F8F4F9F4F99234A
:102C0000A9F0F92F96E9BB279395F69587957795C7
:102C10006795B795F111F8CFFAF4BB0F11F460FF87
:102C20001BC06F5F7F4F8F4F9F4F16C0882311F0DF
:102C300096E911C0772321F09EE8872F762F05C0F3
:102C4000662371F096E8862F70E060E02AF09A958E
:102C5000660F771F881FDAF7880F9695879597F983
:102C600008950E9444160C94B5160E94A71638F0D9
:102C70000E94AE1620F0952311F00C949E160C9431
:102C8000A41611240C94E9160E94C61670F3959FA1
:102C9000C1F3950F50E0551F629FF001729FBB2753
:102CA000F00DB11D639FAA27F00DB11DAA1F649FEF
:102CB0006627B00DA11D661F829F2227B00DA11DA2
:102CC000621F739FB00DA11D621F839FA00D611D28
:102CD000221F749F3327A00D611D231F849F600D49
:102CE000211D822F762F6A2F11249F5750409AF072
:102CF000F1F088234AF0EE0FFF1FBB1F661F771FFE
:102D0000881F91505040A9F79E3F510580F00C94C8
:102D10009E160C94E9165F3FE4F3983ED4F3869533
:102D200077956795B795F795E7959F5FC1F7FE2B68
:102D3000880F911D9695879597F9089597F99F6744
:102D400080E870E060E008959FEF80EC0895002433
:102D50000A941616170618060906089500240A9400
:102D600012161306140605060895092E0394000C86
:102D700011F4882352F0BB0F40F4BF2B11F460FF15
:102D800004C06F5F7F4F8F4F9F4F089557FD90583E
:102D9000440F551F59F05F3F71F04795880F97FB1F
:102DA000991F61F09F3F79F08795089512161306D9
:102DB0001406551FF2CF4695F1DF08C01616170608
:102DC0001806991FF1CF869571056105089408953D
:102DD000E894BB2766277727CB0197F9089511E080
:102DE000CCE3D1E004C0FE010E9422122196CD3333
:082DF000D107C9F7F894FFCFE9
:102DF800FFFFFFFF00E100000000000091029102C8
:102E08009102910291020C0000CE04800000C18062
:102E18008100000000000000310271085202FD0329
:102E28001B044702000000002003F002E802D4025D
:102E3800C502C402000000004F0300000000A80BF8
:102E4800526967687420656E636F64657220696E85
:102E580074657272757074207472696767657265DB
:102E680064004C65667420656E636F6465722069E2
:102E78006E746572727570742074726967676572B2
:102E880065640046696E6973686564206D6F76696C
:102E98006E670046696E6973686564207475726E42
:102EA800696E670050726F6772616D20737461722A
:102EB80074004D6F76656D656E74206D6F64756C0A
:102EC800652E00466F756E642073656E736F7200B1
:102ED8004E6F20544353333437323520666F756E46
:102EE80064202E2E2E20636865636B20796F7572BF
:102EF80020636F6E6E656374696F6E7300433A0981
:102F08000009523A090009473A090009423A0900FA
:102F18000D0A004D6F76696E6720666F7277617271
:102F280064004D6F76696E67206261636B776172CA
:102F38006473005475726E696E67206C6566740000
:102F48005475726E696E672072696768740053659C
:102F58007269616C20576F726B696E672E2E2E0036
:2070000055C000006EC000006CC000006AC0000068C0000066C0000064C0000062C0000043
:2070200060C000005EC00000F2C400005AC0000058C0000056C0000054C0000052C00000EE
:2070400050C0000078C000004CC000004AC0000048C0000046C0000044C0000042C00000BE
:2070600040C000003EC000003CC000003AC0000038C0000036C0000034C0000032C0000048
:2070800030C000002EC000002CC000002AC0000028C0000026C0000024C0000022C00000A8
:2070A00020C000001EC000001CC0000011241FBECFEFDAE0DEBFCDBF11E0A0E0B1E0E2E3BC
:2070C000FFE702C005900D92A83AB107D9F711E0A8EAB1E001C01D92AE3BB107E1F78FD30B
:2070E00026C78ECFF89410926F0010928100109285001092840081E085BF15BE47985D9AEB
:20710000289A0C94000008952091B2013091B3012F5F3F4F3093B3012093B201932F37FFA6
:2071200003C08EEF831B982F990F921710F447980895479A08951F920F920FB60F9211246E
:207140002F938F939F93EF93FF9310928500109284008091A8019091A901009741F00197D3
:207160009093A9018093A801892B09F45D9A8091AA019091AB01009741F001979093AB0126
:207180008093AA01892B09F4289AE0E0F0E0859194918F5F9F4F49F08091AC019091AD0151
:2071A00001969093AD018093AC01FF91EF919F918F912F910F900FBE0F901F90189584E0BC
:2071C0008093E9000DC08091E8008B778093E80003C08EB3882351F08091E80082FFF9CFBE
:2071E0008091E80085FFEFCF8091F1000895982F83E08093E9008091E80085FD0DC0809136
:20720000E8008E778093E80003C08EB3882369F08091E80080FFF9CF9093F1005D9884E6CB
:2072200090E09093A9018093A80108954F925F926F927F928F929F92AF92BF92CF92DF921E
:20724000EF92FF920F931F93CF93DF9384E08093E9008091E80082FF57C2289884E690E067
:207260009093AB018093AA01AADF182F853481F48CE49DE19093AD018093AC0107B600FC4B
:20728000FDCFF999FECF81E180935700E89503C0843519F494DF8DE00DC28C34E1F38035F9
:2072A000D1F3843721F484E4A2DF80E003C2813611F489E5FFC18134B1F481DF182F7FDFE3
:2072C00090E0880F991FAA2797FDA095BA2F312F330F20E0442737FD4095542F822B932B68
:2072E000A42BB52BB8C1803711F483E5E3C1833549F4C0E0D1E089917ADF21E0C730D20714
:20730000D1F7D9C1863521F481E371DF80E3D2C1833731F487E86BDF85E969DF8EE1CAC149
:207320008536B9F4E0E0F0E093E085E090935700E89507B600FCFDCF80935700E89507B65D
:2073400000FCFDCFE058FF4FA0E7E030FA0771F7A2CF823739F4E1E0F0E089E08093570024
:207360008491A8C1863439F4E0E0F0E089E08093570084919FC18E3439F4E3E0F0E089E0E5
:2073800080935700849196C1813539F4E2E0F0E089E08093570084918DC1823631F489E521
:2073A00026DF80E024DF80E885C1823419F0873609F0E5C01092AD011092AC0100DF082FE8
:2073C000FEDEF82EFCDE682E8554823008F071C1902F80E0CF2DD0E0C82BD92B10926F00B3
:2073E000173609F04BC081E180935700E895DD24CC24C3943FC0E090AE01F090AF010091CC
:20740000B0011091B101B6E46B16D9F4ED2DF0E0EE29FF29E4918E2FEADEDD2081F082E08D
:2074200090E0A0E0B0E0E80EF91E0A1F1B1FE092AE01F092AF010093B0011093B101DC2470
:2074400018C0D801C701B695A7959795879559D5CEDE82E090E0A0E0B0E0E80EF91E0A1FF2
:207460001B1FE092AE01F092AF010093B0011093B1012197209709F0BECF7DC08090AE01F5
:207480009090AF01A090B001B090B10196E4691609F05DC083E0F40180935700E89507B63E
:2074A00000FCFDCF54C0F6E46F1661F5772031F1E090AE01F090AF010091B0011091B1019E
:2074C0007EDED82ECC24852D90E08C299D29F7010C0140925700E895112482E090E0A0E08B
:2074E000B0E0E80EF91E0A1F1B1FE092AE01F092AF010093B0011093B10102C060DE582E1A
:20750000742423C0E090AE01F090AF010091B0011091B10116950795F794E79450DE682FFA
:20752000C701F7D48091AE019091AF01A091B001B091B1010296A11DB11D8093AE01909349
:20754000AF01A093B001B093B101219704C05524772444244394209709F0A5CF96E46916B6
:2075600041F485E0F40180935700E89507B600FCFDCF8DE03CDE82E080936F009CC0833492
:2075800071F40091AE011091AF0119DE90E021E0F8010C0120935700E89511247CCE8336C8
:2075A00019F5E090AE01F090AF010091B0011091B10105DEF701E16090E021E00C0120938C
:2075C0005700E895112482E090E0A0E0B0E0E80EF91E0A1F1B1FE092AE01F092AF0100936A
:2075E000B0011093B10157CE8D3661F4E091AE01F091AF0185E080935700E89507B600FCF2
:20760000FDCF49CE823551F4E091AE01F091AF0105911491812FEBDD802F4CC0843421F5FE
:20762000E090AE01F090AF010091B0011091B10116950795F794E794C2DD682FC70169D4DE
:207640008091AE019091AF01A091B001B091B1010296A11DB11D8093AE019093AF01A093D8
:20766000B001B093B10117CE843609F5E090AE01F090AF010091B0011091B101D801C70142
:20768000B695A795979587953CD4B1DD82E090E0A0E0B0E0E80EF91E0A1F1B1FE092AE010A
:2076A000F092AF010093B0011093B10104C08B3111F08FE39CDD83E08093E9009091E8002B
:2076C0008091E8008E778093E80095FF04C010C08EB38823C9F08091E80080FFF9CF809193
:2076E000E8008E778093E80003C08EB3882361F08091E80080FFF9CF84E08093E9008091F1
:20770000E8008B778093E800DF91CF911F910F91FF90EF90DF90CF90BF90AF909F908F90AC
:207720007F906F905F904F9008959091B601892F8F77813249F58091B7018032A1F081328A
:2077400019F5913A09F58091E800877F8093E8008DE091E067E070E00BD28091E8008B770B
:207760008093E8000895913279F48091E800877F8093E8008DE091E067E070E05DD2809192
:20778000E8008E778093E800089582E061EC42E0B5D083E061E842E1B1D084E060E842E1EF
:2077A000ADC084B7877F84BF88E10FB6F89480936000109260000FBE20E880E090E00FB63F
:2077C000F89420936100809361000FBE81E085BF92E095BF3F9A209A559AE1E6F0E02083A1
:2077E000108247985D9A289A109289008AEF8093880090936F0083E080938100F0C0409116
:20780000000850910108109201081092000894B714BE88E10FB6F8948093600010926000D5
:207820000FBE292F30E0F901E270F07091FD18C090FF05C0859194918F5F9F4F81F423FFFF
:207840000FC08091090190910A014817590741F0E0E0F0E0859194918F5F9F4F09F042DC64
:20786000A0DF78941092AD011092AC010CC0DEDC36D38091AC019091AD0181549F4110F00D
:207880001092140141DC80911401882381F78091E00081608093E00025DC80E090E0089598
:2078A000FA01923049F0933061F09130F9F485E191E022E130E01EC087E291E02EE330E04D
:2078C00019C0882329F485E691E024E030E012C0813029F489E691E022E230E00BC0823006
:2078E00029F48DE891E028E130E004C080E090E020E030E091838083C90108958093E9004E
:207900008091EB0081608093EB001092ED006093EC004093ED008091EE00881F8827881F62
:2079200008958091B60188238CF403C08EB38823B1F08091E80082FFF9CF8091E8008B772A
:207940008093E80008958EB3882349F08091E80080FFF9CF8091E8008E778093E800089594
:20796000EF92FF920F931F9345D04CD008ED10E0F80180818F77808380818068808380819B
:207980008F7D808319BC1EBA1092B40180EEE82EF12CF70180818B7F8083F8018081816052
:2079A000808380E060E042E0A9DFE1EEF0E080818E7F8083E2EEF0E0808181608083808144
:2079C00088608083F70180818E7F8083F8018081806180831F910F91FF90EF900895E7ED06
:2079E000F0E08081816080838AE482BF81E08093B501B6CFE8EDF0E080818E7F808310921C
:207A0000E20008951092DA001092E10008951F920F920FB60F9211242F933F934F935F93F6
:207A20006F937F938F939F93AF93BF93EF93FF938091DA0080FF1BC08091D80080FF17C0B2
:207A40008091DA008E7F8093DA008091D90080FF0BC080E189BD82E189BD09B400FEFDCF36
:207A600081E08EBB3BD203C019BC1EBA37D28091E10080FF17C08091E20080FF13C0809138
:207A8000E2008E7F8093E2008091E20080618093E2008091D80080628093D80019BC85E049
:207AA0008EBB1CD28091E10084FF2CC08091E20084FF28C080E189BD82E189BD09B400FEC5
:207AC000FDCF8091D8008F7D8093D8008091E1008F7E8093E1008091E2008F7E8093E20012
:207AE0008091E20081608093E2008091B401882331F48091E30087FD02C081E001C084E067
:207B00008EBBECD18091E10083FF21C08091E20083FF1DC08091E100877F8093E10082E06A
:207B20008EBB1092B4018091E1008E7F8093E1008091E2008E7F8093E2008091E2008061E9
:207B40008093E20080E060E042E0D8DEC7D1FF91EF91BF91AF919F918F917F916F915F9130
:207B60004F913F912F910F900FBE0F901F9018959C014091BC015091BD014617570718F49D
:207B8000F90190E044C06115710511F0AB01F8CF8091E8008E778093E80040E050E0F0CF0F
:207BA0008EB3882309F444C0853009F443C08091E80083FF02C081E008958091E80082FD70
:207BC00031C08091E80080FF22C08091F3009091F200782F60E0292F30E0262B372B07C07A
:207BE00081918093F100415050402F5F3F4F4115510519F02830310598F390E02830310566
:207C000009F491E08091E8008E778093E8004115510531F6992321F605C08EB3882341F075
:207C2000853041F08091E80082FFF7CF80E0089582E0089583E008959C016115710529F47C
:207C40008091E8008B778093E800F90126C08EB3882391F1853091F18091E80083FF02C06C
:207C600081E008958091E80082FFF1CF06C08091F10081936150704059F02091F300809191
:207C8000F200322F20E090E0822B932B892B79F78091E8008B778093E80061157105B9F601
:207CA00005C08EB3882341F0853041F08091E80080FFF7CF80E0089582E0089583E00895C2
:207CC0000F931F93DF93CF9300D0CDB7DEB7E6EBF1E08091F100819381E0EE3BF807C9F792
:207CE00024DD8091E80083FFE4C08091B6019091B701953009F46DC0963040F4913081F1A7
:207D0000913070F0933009F0D4C02AC0983009F4A3C0993009F4B2C0963009F0CAC07CC023
:207D2000803809F4C6C0823809F0C3C08091BA0187708093E9008091EB001092E9002091DB
:207D4000E800277F2093E80090E025E0969587952A95E1F781708093F1001092F10087C0D8
:207D6000882319F0823009F0A4C08F71823009F0A0C08091B801882331F52091BA01277097
:207D800009F497C02093E9008091EB0080FF1BC0933021F48091EB00806213C08091EB0018
:207DA00080618093EB0081E090E002C0880F991F2A95E2F78093EA001092EA008091EB00E5
:207DC00088608093EB001092E9008091E800877F51C0882309F06DC01091B8011F770FB79B
:207DE000F8948091E800877F8093E8009ADD8091E80080FFFCCF8091E3008078812B809398
:207E0000E30080688093E300112311F482E001C083E08EBB0FBF4DC08058823008F049C033
:207E20008091B8019091B9016091BA01AE014F5F5F4F36DDBC01009709F43BC08091E8008E
:207E4000877F8093E80089819A8192DE8091E8008B778093E8002DC0803859F58091E800AA
:207E6000877F8093E8008091B4018093F1008091E8008E778093E80054DD1BC08823C9F4CA
:207E80009091B8019230A8F48091E800877F8093E8009093B40145DD8091B401882331F420
:207EA0008091E30087FD02C081E001C084E08EBB6CDC8091E80083FF0AC08091EB0080624E
:207EC0008093EB008091E800877F8093E8000F900F90CF91DF911F910F91089508951F9360
:207EE0008EB3882361F01091E9001092E9008091E80083FF01C0E4DE17701093E9001F916F
:207F00000895F999FECF92BD81BDF89A992780B50895262FF999FECF1FBA92BD81BD20BDBD
:207F20000FB6F894FA9AF99A0FBE01960895F894FFCF4341544552494E4100777700080031
:207F40000000000000080112011001020000084123360001000201000109023E00020100FF
:207F600080320904000001020201000524001001042402040524060001070582030800FF0C
:207F800009040100020A000000070504021000010705830210000104030904220341007216
:207FA000006400750069006E006F0020004C0065006F006E006100720064006F0000001836
:1A7FC00003410072006400750069006E006F0020004C004C004300000000D7
:00000001FF
